{
    "_format": "hh-sol-artifact-1",
    "contractName": "BeraCrocMultiSwap",
    "sourceName": "contracts/BeraCrocMultiSwap.sol",
    "abi": [
        {
            "inputs": [
                {
                    "internalType": "address",
                    "name": "initialWbera",
                    "type": "address"
                }
            ],
            "stateMutability": "nonpayable",
            "type": "constructor"
        },
        {
            "anonymous": false,
            "inputs": [
                {
                    "indexed": true,
                    "internalType": "bytes32",
                    "name": "pool",
                    "type": "bytes32"
                },
                {
                    "indexed": true,
                    "internalType": "int24",
                    "name": "tick",
                    "type": "int24"
                },
                {
                    "indexed": false,
                    "internalType": "bool",
                    "name": "isBid",
                    "type": "bool"
                },
                {
                    "indexed": false,
                    "internalType": "uint32",
                    "name": "pivotTime",
                    "type": "uint32"
                },
                {
                    "indexed": false,
                    "internalType": "uint64",
                    "name": "feeMileage",
                    "type": "uint64"
                },
                {
                    "indexed": false,
                    "internalType": "uint160",
                    "name": "commitEntropy",
                    "type": "uint160"
                }
            ],
            "name": "CrocKnockoutCross",
            "type": "event"
        },
        {
            "inputs": [],
            "name": "acceptCrocDex",
            "outputs": [
                {
                    "internalType": "bool",
                    "name": "",
                    "type": "bool"
                }
            ],
            "stateMutability": "pure",
            "type": "function"
        },
        {
            "inputs": [
                {
                    "internalType": "uint16",
                    "name": "callpath",
                    "type": "uint16"
                },
                {
                    "internalType": "bytes",
                    "name": "cmd",
                    "type": "bytes"
                },
                {
                    "internalType": "bool",
                    "name": "sudo",
                    "type": "bool"
                }
            ],
            "name": "protocolCmd",
            "outputs": [],
            "stateMutability": "payable",
            "type": "function"
        },
        {
            "inputs": [
                {
                    "internalType": "uint256",
                    "name": "slot",
                    "type": "uint256"
                }
            ],
            "name": "readSlot",
            "outputs": [
                {
                    "internalType": "uint256",
                    "name": "data",
                    "type": "uint256"
                }
            ],
            "stateMutability": "view",
            "type": "function"
        },
        {
            "inputs": [
                {
                    "internalType": "address",
                    "name": "base",
                    "type": "address"
                },
                {
                    "internalType": "address",
                    "name": "quote",
                    "type": "address"
                },
                {
                    "internalType": "uint256",
                    "name": "poolIdx",
                    "type": "uint256"
                },
                {
                    "internalType": "bool",
                    "name": "isBuy",
                    "type": "bool"
                },
                {
                    "internalType": "bool",
                    "name": "inBaseQty",
                    "type": "bool"
                },
                {
                    "internalType": "uint128",
                    "name": "qty",
                    "type": "uint128"
                },
                {
                    "internalType": "uint16",
                    "name": "tip",
                    "type": "uint16"
                },
                {
                    "internalType": "uint128",
                    "name": "limitPrice",
                    "type": "uint128"
                },
                {
                    "internalType": "uint128",
                    "name": "minOut",
                    "type": "uint128"
                },
                {
                    "internalType": "uint8",
                    "name": "reserveFlags",
                    "type": "uint8"
                }
            ],
            "name": "swap",
            "outputs": [
                {
                    "internalType": "int128",
                    "name": "baseFlow",
                    "type": "int128"
                },
                {
                    "internalType": "int128",
                    "name": "quoteFlow",
                    "type": "int128"
                }
            ],
            "stateMutability": "payable",
            "type": "function"
        },
        {
            "inputs": [
                {
                    "internalType": "uint16",
                    "name": "callpath",
                    "type": "uint16"
                },
                {
                    "internalType": "bytes",
                    "name": "cmd",
                    "type": "bytes"
                }
            ],
            "name": "userCmd",
            "outputs": [
                {
                    "internalType": "bytes",
                    "name": "",
                    "type": "bytes"
                }
            ],
            "stateMutability": "payable",
            "type": "function"
        },
        {
            "inputs": [
                {
                    "internalType": "uint16",
                    "name": "callpath",
                    "type": "uint16"
                },
                {
                    "internalType": "bytes",
                    "name": "cmd",
                    "type": "bytes"
                },
                {
                    "internalType": "bytes",
                    "name": "conds",
                    "type": "bytes"
                },
                {
                    "internalType": "bytes",
                    "name": "relayerTip",
                    "type": "bytes"
                },
                {
                    "internalType": "bytes",
                    "name": "signature",
                    "type": "bytes"
                }
            ],
            "name": "userCmdRelayer",
            "outputs": [
                {
                    "internalType": "bytes",
                    "name": "output",
                    "type": "bytes"
                }
            ],
            "stateMutability": "payable",
            "type": "function"
        },
        {
            "inputs": [
                {
                    "internalType": "uint16",
                    "name": "callpath",
                    "type": "uint16"
                },
                {
                    "internalType": "bytes",
                    "name": "cmd",
                    "type": "bytes"
                },
                {
                    "internalType": "address",
                    "name": "client",
                    "type": "address"
                }
            ],
            "name": "userCmdRouter",
            "outputs": [
                {
                    "internalType": "bytes",
                    "name": "",
                    "type": "bytes"
                }
            ],
            "stateMutability": "payable",
            "type": "function"
        },
        {
            "inputs": [],
            "name": "wbera",
            "outputs": [
                {
                    "internalType": "address",
                    "name": "",
                    "type": "address"
                }
            ],
            "stateMutability": "view",
            "type": "function"
        },
        {
            "stateMutability": "payable",
            "type": "receive"
        }
    ],
    "bytecode": "60a080604052346100e857306080527ff0c57e16840df040f15088dc2f81fe391c3923bec73e23a9662efc9c229c6a005460ff8160401c166100d9576002600160401b03196001600160401b03821601610073575b60405161166390816100ed823960805181818161089a01526109b90152f35b6001600160401b0319166001600160401b039081177ff0c57e16840df040f15088dc2f81fe391c3923bec73e23a9662efc9c229c6a005581527fc7f505b2f371ae2175ee4913f4499e1f2633a7b5936321eed1cdaeb6115181d290602090a15f80610054565b63f92ee8a960e01b5f5260045ffd5b5f80fdfe60806040526004361015610011575f80fd5b5f3560e01c806306fdde031461125b578063095ea7b3146111d257806318160ddd1461118f57806323b872dd14611088578063313ce5671461104f5780633644e51514610fa957806340c10f1914610edd578063485cc95514610c745780634f1ef2861461091257806352d1902d1461085557806370a0823114610805578063715018a61461072b5780637ecebe00146106db5780638da5cb5b1461066b57806395d89b41146105f65780639dc29fac146104fd578063a9059cbb14610450578063ad3cb1cc146103d7578063d505accf14610204578063dd62ed3e146101a8578063e7f6f225146101585763f2fde38b1461010b575f80fd5b346101545760207ffffffffffffffffffffffffffffffffffffffffffffffffffffffffffffffffc360112610154576101526101456112e4565b61014d6114fa565b61140d565b005b5f80fd5b34610154575f7ffffffffffffffffffffffffffffffffffffffffffffffffffffffffffffffffc36011261015457602073ffffffffffffffffffffffffffffffffffffffff5f5416604051908152f35b346101545760407ffffffffffffffffffffffffffffffffffffffffffffffffffffffffffffffffc360112610154576101df6112e4565b6101e7611307565b602052637f5e9f20600c525f5260206034600c2054604051908152f35b346101545760e07ffffffffffffffffffffffffffffffffffffffffffffffffffffffffffffffffc3601126101545761023b6112e4565b610243611307565b6084359160643560443560ff851685036101545761025f6113d2565b60208151910120908242116103ca5773ffffffffffffffffffffffffffffffffffffffff80604051951695169565383775081901600e52855f5260c06020600c20958654957f8b73c3c69bb8fe3d512ecc4cf759cc79239f7b179b0ffacaa9a75d522b39400f8252602082019586528660408301967fc89efdaa54c0f20c7adf612882df0950f5a951637e0307cdcb4c672f298b8bc688528b6060850198468a528c608087019330855260a08820602e527f6e71edae12b1b97f4d1f60370fef10105fa2faae0126114a169c64845d6126c9885252528688525260a082015220604e526042602c205f5260ff1660205260a43560405260c43560605260208060805f60015afa93853d51036103bd577f8c5be1e5ebec7d5bd14f71427d1e84f3dd0314c0f7b2291e5b200ac8c7c3b9259460209401905585777f5e9f200000000000000000000000000000000000000000176040526034602c2055a3005b63ddafbaef5f526004601cfd5b631a15a3cc5f526004601cfd5b34610154575f7ffffffffffffffffffffffffffffffffffffffffffffffffffffffffffffffffc3601126101545761044c60405161041660408261132a565b600581527f352e302e3000000000000000000000000000000000000000000000000000000060208201526040519182918261129c565b0390f35b346101545760407ffffffffffffffffffffffffffffffffffffffffffffffffffffffffffffffffc360112610154576104876112e4565b602435906387a211a2600c52335f526020600c2080548084116104f05783900390555f526020600c20818154019055602052600c5160601c337fddf252ad1be2c89b69c2b068fc378daa952ba7f163c4a11628f55a4df523b3ef602080a3602060405160018152f35b63f4d678b85f526004601cfd5b346101545760407ffffffffffffffffffffffffffffffffffffffffffffffffffffffffffffffffc360112610154576105346112e4565b60243573ffffffffffffffffffffffffffffffffffffffff5f541633036105ce576387a211a2600c52815f526020600c20918254918281116104f0575f938173ffffffffffffffffffffffffffffffffffffffff94039055806805345cdf77eb68f44c54036805345cdf77eb68f44c558352167fddf252ad1be2c89b69c2b068fc378daa952ba7f163c4a11628f55a4df523b3ef602083a3005b7f5871892b000000000000000000000000000000000000000000000000000000005f5260045ffd5b34610154575f7ffffffffffffffffffffffffffffffffffffffffffffffffffffffffffffffffc3601126101545761044c60405161063560408261132a565b600581527f484f4e455900000000000000000000000000000000000000000000000000000060208201526040519182918261129c565b34610154575f7ffffffffffffffffffffffffffffffffffffffffffffffffffffffffffffffffc36011261015457602073ffffffffffffffffffffffffffffffffffffffff7f9016d09d72d40fdae2fd8ceac6b6234c7706214fd39c1cd1e609a0528c1993005416604051908152f35b346101545760207ffffffffffffffffffffffffffffffffffffffffffffffffffffffffffffffffc360112610154576107126112e4565b6338377508600c525f52602080600c2054604051908152f35b34610154575f7ffffffffffffffffffffffffffffffffffffffffffffffffffffffffffffffffc360112610154576107616114fa565b5f73ffffffffffffffffffffffffffffffffffffffff7f9016d09d72d40fdae2fd8ceac6b6234c7706214fd39c1cd1e609a0528c199300547fffffffffffffffffffffffff000000000000000000000000000000000000000081167f9016d09d72d40fdae2fd8ceac6b6234c7706214fd39c1cd1e609a0528c19930055167f8be0079c531659141344cd1fd0a4f28419497f9722a3daafe3b4186f6b6457e08280a3005b346101545760207ffffffffffffffffffffffffffffffffffffffffffffffffffffffffffffffffc3601126101545761083c6112e4565b6387a211a2600c525f52602080600c2054604051908152f35b34610154575f7ffffffffffffffffffffffffffffffffffffffffffffffffffffffffffffffffc3601126101545773ffffffffffffffffffffffffffffffffffffffff7f00000000000000000000000000000000000000000000000000000000000000001630036108ea5760206040517f360894a13ba1a3210667c828492db98dca3e2076cc3735a920a3ca505d382bbc8152f35b7fe07c8dba000000000000000000000000000000000000000000000000000000005f5260045ffd5b60407ffffffffffffffffffffffffffffffffffffffffffffffffffffffffffffffffc360112610154576109446112e4565b6024359067ffffffffffffffff821161015457366023830112156101545781600401359061097182611398565b9161097f604051938461132a565b8083526020830193366024838301011161015457815f9260246020930187378401015273ffffffffffffffffffffffffffffffffffffffff7f000000000000000000000000000000000000000000000000000000000000000016803014908115610c32575b506108ea576109f16114fa565b73ffffffffffffffffffffffffffffffffffffffff8116926040517f52d1902d000000000000000000000000000000000000000000000000000000008152602081600481885afa5f9181610bfe575b50610a7157847f4c9c8ce3000000000000000000000000000000000000000000000000000000005f5260045260245ffd5b807f360894a13ba1a3210667c828492db98dca3e2076cc3735a920a3ca505d382bbc869203610bd35750823b15610ba857807fffffffffffffffffffffffff00000000000000000000000000000000000000007f360894a13ba1a3210667c828492db98dca3e2076cc3735a920a3ca505d382bbc5416177f360894a13ba1a3210667c828492db98dca3e2076cc3735a920a3ca505d382bbc557fbc7cd75a20ee27fd9adebab32041f755214dbc6bffa90cc0225b39da2e5c2d3b5f80a2825115610b76575f8091610152945190845af43d15610b6e573d91610b5283611398565b92610b60604051948561132a565b83523d5f602085013e6115bd565b6060916115bd565b50505034610b8057005b7fb398979f000000000000000000000000000000000000000000000000000000005f5260045ffd5b7f4c9c8ce3000000000000000000000000000000000000000000000000000000005f5260045260245ffd5b7faa1d49a4000000000000000000000000000000000000000000000000000000005f5260045260245ffd5b9091506020813d602011610c2a575b81610c1a6020938361132a565b8101031261015457519086610a40565b3d9150610c0d565b905073ffffffffffffffffffffffffffffffffffffffff7f360894a13ba1a3210667c828492db98dca3e2076cc3735a920a3ca505d382bbc54161415846109e4565b346101545760407ffffffffffffffffffffffffffffffffffffffffffffffffffffffffffffffffc36011261015457610cab6112e4565b610cb3611307565b907ff0c57e16840df040f15088dc2f81fe391c3923bec73e23a9662efc9c229c6a00549160ff8360401c16159267ffffffffffffffff811680159081610ed5575b6001149081610ecb575b159081610ec2575b50610e9a5773ffffffffffffffffffffffffffffffffffffffff92818560017fffffffffffffffffffffffffffffffffffffffffffffffff0000000000000000610d849516177ff0c57e16840df040f15088dc2f81fe391c3923bec73e23a9662efc9c229c6a0055610e45575b50610d7c611566565b61014d611566565b167fffffffffffffffffffffffff00000000000000000000000000000000000000005f5416175f55610db257005b7fffffffffffffffffffffffffffffffffffffffffffffff00ffffffffffffffff7ff0c57e16840df040f15088dc2f81fe391c3923bec73e23a9662efc9c229c6a0054167ff0c57e16840df040f15088dc2f81fe391c3923bec73e23a9662efc9c229c6a00557fc7f505b2f371ae2175ee4913f4499e1f2633a7b5936321eed1cdaeb6115181d2602060405160018152a1005b7fffffffffffffffffffffffffffffffffffffffffffffff0000000000000000001668010000000000000001177ff0c57e16840df040f15088dc2f81fe391c3923bec73e23a9662efc9c229c6a005585610d73565b7ff92ee8a9000000000000000000000000000000000000000000000000000000005f5260045ffd5b90501585610d06565b303b159150610cfe565b859150610cf4565b346101545760407ffffffffffffffffffffffffffffffffffffffffffffffffffffffffffffffffc36011261015457610f146112e4565b6024359073ffffffffffffffffffffffffffffffffffffffff5f541633036105ce576805345cdf77eb68f44c54828101908110610f9c576805345cdf77eb68f44c556387a211a2600c525f526020600c20818154019055602052600c5160601c5f7fddf252ad1be2c89b69c2b068fc378daa952ba7f163c4a11628f55a4df523b3ef602080a3005b63e5cfe9575f526004601cfd5b34610154575f7ffffffffffffffffffffffffffffffffffffffffffffffffffffffffffffffffc36011261015457602060a0610fe36113d2565b828151910120604051907f8b73c3c69bb8fe3d512ecc4cf759cc79239f7b179b0ffacaa9a75d522b39400f8252838201527fc89efdaa54c0f20c7adf612882df0950f5a951637e0307cdcb4c672f298b8bc6604082015246606082015230608082015220604051908152f35b34610154575f7ffffffffffffffffffffffffffffffffffffffffffffffffffffffffffffffffc36011261015457602060405160128152f35b346101545760607ffffffffffffffffffffffffffffffffffffffffffffffffffffffffffffffffc360112610154576110bf6112e4565b6110c7611307565b604435908260601b33602052637f5e9f208117600c526034600c20908154916001830161116b575b506387a211a2915017600c526020600c2080548084116104f05783900390555f526020600c2081815401905560205273ffffffffffffffffffffffffffffffffffffffff600c5160601c91167fddf252ad1be2c89b69c2b068fc378daa952ba7f163c4a11628f55a4df523b3ef602080a3602060405160018152f35b82851161118257846387a211a293039055856110ef565b6313be252b5f526004601cfd5b34610154575f7ffffffffffffffffffffffffffffffffffffffffffffffffffffffffffffffffc3601126101545760206805345cdf77eb68f44c54604051908152f35b346101545760407ffffffffffffffffffffffffffffffffffffffffffffffffffffffffffffffffc360112610154576112096112e4565b60243590602052637f5e9f20600c52335f52806034600c20555f52602c5160601c337f8c5be1e5ebec7d5bd14f71427d1e84f3dd0314c0f7b2291e5b200ac8c7c3b92560205fa3602060405160018152f35b34610154575f7ffffffffffffffffffffffffffffffffffffffffffffffffffffffffffffffffc3601126101545761044c6112946113d2565b604051918291825b7fffffffffffffffffffffffffffffffffffffffffffffffffffffffffffffffe0601f602060409481855280519182918282880152018686015e5f8582860101520116010190565b6004359073ffffffffffffffffffffffffffffffffffffffff8216820361015457565b6024359073ffffffffffffffffffffffffffffffffffffffff8216820361015457565b90601f7fffffffffffffffffffffffffffffffffffffffffffffffffffffffffffffffe0910116810190811067ffffffffffffffff82111761136b57604052565b7f4e487b71000000000000000000000000000000000000000000000000000000005f52604160045260245ffd5b67ffffffffffffffff811161136b57601f017fffffffffffffffffffffffffffffffffffffffffffffffffffffffffffffffe01660200190565b604051906113e160408361132a565b600582527f486f6e65790000000000000000000000000000000000000000000000000000006020830152565b73ffffffffffffffffffffffffffffffffffffffff1680156114ce5773ffffffffffffffffffffffffffffffffffffffff7f9016d09d72d40fdae2fd8ceac6b6234c7706214fd39c1cd1e609a0528c19930054827fffffffffffffffffffffffff00000000000000000000000000000000000000008216177f9016d09d72d40fdae2fd8ceac6b6234c7706214fd39c1cd1e609a0528c19930055167f8be0079c531659141344cd1fd0a4f28419497f9722a3daafe3b4186f6b6457e05f80a3565b7f1e4fbdf7000000000000000000000000000000000000000000000000000000005f525f60045260245ffd5b73ffffffffffffffffffffffffffffffffffffffff7f9016d09d72d40fdae2fd8ceac6b6234c7706214fd39c1cd1e609a0528c1993005416330361153a57565b7f118cdaa7000000000000000000000000000000000000000000000000000000005f523360045260245ffd5b60ff7ff0c57e16840df040f15088dc2f81fe391c3923bec73e23a9662efc9c229c6a005460401c161561159557565b7fd7e6bcf8000000000000000000000000000000000000000000000000000000005f5260045ffd5b906115fa57508051156115d257805190602001fd5b7f1425ea42000000000000000000000000000000000000000000000000000000005f5260045ffd5b8151158061164d575b61160b575090565b73ffffffffffffffffffffffffffffffffffffffff907f9996b315000000000000000000000000000000000000000000000000000000005f521660045260245ffd5b50803b1561160356fea164736f6c634300081a000a",
    "linkReferences": {},
    "deployedLinkReferences": {}
}