{
    "_format": "hh-sol-artifact-1",
    "contractName": "BeraCrocMultiSwap",
    "sourceName": "contracts/BeraCrocMultiSwap.sol",
    "abi": [
        {
            "inputs": [],
            "name": "AllowanceOverflow",
            "type": "error"
        },
        {
            "inputs": [],
            "name": "AllowanceUnderflow",
            "type": "error"
        },
        {
            "inputs": [],
            "name": "ETHTransferFailed",
            "type": "error"
        },
        {
            "inputs": [],
            "name": "InsufficientAllowance",
            "type": "error"
        },
        {
            "inputs": [],
            "name": "InsufficientBalance",
            "type": "error"
        },
        {
            "inputs": [],
            "name": "InvalidPermit",
            "type": "error"
        },
        {
            "inputs": [],
            "name": "PermitExpired",
            "type": "error"
        },
        {
            "inputs": [],
            "name": "TotalSupplyOverflow",
            "type": "error"
        },
        {
            "anonymous": false,
            "inputs": [
                {
                    "indexed": true,
                    "internalType": "address",
                    "name": "owner",
                    "type": "address"
                },
                {
                    "indexed": true,
                    "internalType": "address",
                    "name": "spender",
                    "type": "address"
                },
                {
                    "indexed": false,
                    "internalType": "uint256",
                    "name": "amount",
                    "type": "uint256"
                }
            ],
            "name": "Approval",
            "type": "event"
        },
        {
            "anonymous": false,
            "inputs": [
                {
                    "indexed": true,
                    "internalType": "address",
                    "name": "from",
                    "type": "address"
                },
                {
                    "indexed": false,
                    "internalType": "uint256",
                    "name": "amount",
                    "type": "uint256"
                }
            ],
            "name": "Deposit",
            "type": "event"
        },
        {
            "anonymous": false,
            "inputs": [
                {
                    "indexed": true,
                    "internalType": "address",
                    "name": "from",
                    "type": "address"
                },
                {
                    "indexed": true,
                    "internalType": "address",
                    "name": "to",
                    "type": "address"
                },
                {
                    "indexed": false,
                    "internalType": "uint256",
                    "name": "amount",
                    "type": "uint256"
                }
            ],
            "name": "Transfer",
            "type": "event"
        },
        {
            "anonymous": false,
            "inputs": [
                {
                    "indexed": true,
                    "internalType": "address",
                    "name": "to",
                    "type": "address"
                },
                {
                    "indexed": false,
                    "internalType": "uint256",
                    "name": "amount",
                    "type": "uint256"
                }
            ],
            "name": "Withdrawal",
            "type": "event"
        },
        {
            "inputs": [],
            "name": "DOMAIN_SEPARATOR",
            "outputs": [
                {
                    "internalType": "bytes32",
                    "name": "result",
                    "type": "bytes32"
                }
            ],
            "stateMutability": "view",
            "type": "function"
        },
        {
            "inputs": [
                {
                    "internalType": "address",
                    "name": "owner",
                    "type": "address"
                },
                {
                    "internalType": "address",
                    "name": "spender",
                    "type": "address"
                }
            ],
            "name": "allowance",
            "outputs": [
                {
                    "internalType": "uint256",
                    "name": "result",
                    "type": "uint256"
                }
            ],
            "stateMutability": "view",
            "type": "function"
        },
        {
            "inputs": [
                {
                    "internalType": "address",
                    "name": "spender",
                    "type": "address"
                },
                {
                    "internalType": "uint256",
                    "name": "amount",
                    "type": "uint256"
                }
            ],
            "name": "approve",
            "outputs": [
                {
                    "internalType": "bool",
                    "name": "",
                    "type": "bool"
                }
            ],
            "stateMutability": "nonpayable",
            "type": "function"
        },
        {
            "inputs": [
                {
                    "internalType": "address",
                    "name": "owner",
                    "type": "address"
                }
            ],
            "name": "balanceOf",
            "outputs": [
                {
                    "internalType": "uint256",
                    "name": "result",
                    "type": "uint256"
                }
            ],
            "stateMutability": "view",
            "type": "function"
        },
        {
            "inputs": [],
            "name": "decimals",
            "outputs": [
                {
                    "internalType": "uint8",
                    "name": "",
                    "type": "uint8"
                }
            ],
            "stateMutability": "view",
            "type": "function"
        },
        {
            "inputs": [],
            "name": "deposit",
            "outputs": [],
            "stateMutability": "payable",
            "type": "function"
        },
        {
            "inputs": [],
            "name": "name",
            "outputs": [
                {
                    "internalType": "string",
                    "name": "",
                    "type": "string"
                }
            ],
            "stateMutability": "pure",
            "type": "function"
        },
        {
            "inputs": [
                {
                    "internalType": "address",
                    "name": "owner",
                    "type": "address"
                }
            ],
            "name": "nonces",
            "outputs": [
                {
                    "internalType": "uint256",
                    "name": "result",
                    "type": "uint256"
                }
            ],
            "stateMutability": "view",
            "type": "function"
        },
        {
            "inputs": [
                {
                    "internalType": "address",
                    "name": "owner",
                    "type": "address"
                },
                {
                    "internalType": "address",
                    "name": "spender",
                    "type": "address"
                },
                {
                    "internalType": "uint256",
                    "name": "value",
                    "type": "uint256"
                },
                {
                    "internalType": "uint256",
                    "name": "deadline",
                    "type": "uint256"
                },
                {
                    "internalType": "uint8",
                    "name": "v",
                    "type": "uint8"
                },
                {
                    "internalType": "bytes32",
                    "name": "r",
                    "type": "bytes32"
                },
                {
                    "internalType": "bytes32",
                    "name": "s",
                    "type": "bytes32"
                }
            ],
            "name": "permit",
            "outputs": [],
            "stateMutability": "nonpayable",
            "type": "function"
        },
        {
            "inputs": [],
            "name": "symbol",
            "outputs": [
                {
                    "internalType": "string",
                    "name": "",
                    "type": "string"
                }
            ],
            "stateMutability": "pure",
            "type": "function"
        },
        {
            "inputs": [],
            "name": "totalSupply",
            "outputs": [
                {
                    "internalType": "uint256",
                    "name": "result",
                    "type": "uint256"
                }
            ],
            "stateMutability": "view",
            "type": "function"
        },
        {
            "inputs": [
                {
                    "internalType": "address",
                    "name": "to",
                    "type": "address"
                },
                {
                    "internalType": "uint256",
                    "name": "amount",
                    "type": "uint256"
                }
            ],
            "name": "transfer",
            "outputs": [
                {
                    "internalType": "bool",
                    "name": "",
                    "type": "bool"
                }
            ],
            "stateMutability": "nonpayable",
            "type": "function"
        },
        {
            "inputs": [
                {
                    "internalType": "address",
                    "name": "from",
                    "type": "address"
                },
                {
                    "internalType": "address",
                    "name": "to",
                    "type": "address"
                },
                {
                    "internalType": "uint256",
                    "name": "amount",
                    "type": "uint256"
                }
            ],
            "name": "transferFrom",
            "outputs": [
                {
                    "internalType": "bool",
                    "name": "",
                    "type": "bool"
                }
            ],
            "stateMutability": "nonpayable",
            "type": "function"
        },
        {
            "inputs": [
                {
                    "internalType": "uint256",
                    "name": "amount",
                    "type": "uint256"
                }
            ],
            "name": "withdraw",
            "outputs": [],
            "stateMutability": "nonpayable",
            "type": "function"
        },
        {
            "stateMutability": "payable",
            "type": "receive"
        }
    ],
    "bytecode": "60808060405234601557610abf908161001a8239f35b5f80fdfe60806040526004361015610022575b3615610018575f80fd5b610020610a14565b005b5f3560e01c806306fdde03146108fb578063095ea7b31461087257806318160ddd1461082f57806323b872dd146107285780632e1a7d4d1461064f578063313ce567146106165780633644e5151461054c57806370a08231146104fc5780637ecebe00146104ac57806395d89b41146103f5578063a9059cbb14610348578063d0e30db014610317578063d505accf146101205763dd62ed3e0361000e573461011c5760407ffffffffffffffffffffffffffffffffffffffffffffffffffffffffffffffffc36011261011c576100f76109aa565b6100ff6109cd565b602052637f5e9f20600c525f5260206034600c2054604051908152f35b5f80fd5b3461011c5760e07ffffffffffffffffffffffffffffffffffffffffffffffffffffffffffffffffc36011261011c576101576109aa565b61015f6109cd565b6084359160643560443560ff8516850361011c5761017b6109f0565b60208101907f577261707065642042657261000000000000000000000000000000000000000082525190209082421161030a5773ffffffffffffffffffffffffffffffffffffffff80604051951695169565383775081901600e52855f5260c06020600c20958654957f8b73c3c69bb8fe3d512ecc4cf759cc79239f7b179b0ffacaa9a75d522b39400f8252602082019586528660408301967fc89efdaa54c0f20c7adf612882df0950f5a951637e0307cdcb4c672f298b8bc688528b6060850198468a528c608087019330855260a08820602e527f6e71edae12b1b97f4d1f60370fef10105fa2faae0126114a169c64845d6126c9885252528688525260a082015220604e526042602c205f5260ff1660205260a43560405260c43560605260208060805f60015afa93853d51036102fd577f8c5be1e5ebec7d5bd14f71427d1e84f3dd0314c0f7b2291e5b200ac8c7c3b9259460209401905585777f5e9f200000000000000000000000000000000000000000176040526034602c2055a3005b63ddafbaef5f526004601cfd5b631a15a3cc5f526004601cfd5b5f7ffffffffffffffffffffffffffffffffffffffffffffffffffffffffffffffffc36011261011c57610020610a14565b3461011c5760407ffffffffffffffffffffffffffffffffffffffffffffffffffffffffffffffffc36011261011c5761037f6109aa565b602435906387a211a2600c52335f526020600c2080548084116103e85783900390555f526020600c20818154019055602052600c5160601c337fddf252ad1be2c89b69c2b068fc378daa952ba7f163c4a11628f55a4df523b3ef602080a3602060405160018152f35b63f4d678b85f526004601cfd5b3461011c575f7ffffffffffffffffffffffffffffffffffffffffffffffffffffffffffffffffc36011261011c57604051604081019080821067ffffffffffffffff83111761047f5761047b91604052600581527f5742455241000000000000000000000000000000000000000000000000000000602082015260405191829182610962565b0390f35b7f4e487b71000000000000000000000000000000000000000000000000000000005f52604160045260245ffd5b3461011c5760207ffffffffffffffffffffffffffffffffffffffffffffffffffffffffffffffffc36011261011c576104e36109aa565b6338377508600c525f52602080600c2054604051908152f35b3461011c5760207ffffffffffffffffffffffffffffffffffffffffffffffffffffffffffffffffc36011261011c576105336109aa565b6387a211a2600c525f52602080600c2054604051908152f35b3461011c575f7ffffffffffffffffffffffffffffffffffffffffffffffffffffffffffffffffc36011261011c57602060a06105866109f0565b828101907f57726170706564204265726100000000000000000000000000000000000000008252519020604051907f8b73c3c69bb8fe3d512ecc4cf759cc79239f7b179b0ffacaa9a75d522b39400f8252838201527fc89efdaa54c0f20c7adf612882df0950f5a951637e0307cdcb4c672f298b8bc6604082015246606082015230608082015220604051908152f35b3461011c575f7ffffffffffffffffffffffffffffffffffffffffffffffffffffffffffffffffc36011261011c57602060405160128152f35b3461011c5760207ffffffffffffffffffffffffffffffffffffffffffffffffffffffffffffffffc36011261011c576004356387a211a2600c52335f526020600c20908154918282116103e857815f93039055806805345cdf77eb68f44c54036805345cdf77eb68f44c5580825281337fddf252ad1be2c89b69c2b068fc378daa952ba7f163c4a11628f55a4df523b3ef602083a3808252337f7fcf532c15f0a6db0bd6d0e038bea71d30d808c7d98cb3bf7268a95bf5081b65602084a281803892335af11561071b57005b63b12d13eb5f526004601cfd5b3461011c5760607ffffffffffffffffffffffffffffffffffffffffffffffffffffffffffffffffc36011261011c5761075f6109aa565b6107676109cd565b604435908260601b33602052637f5e9f208117600c526034600c20908154916001830161080b575b506387a211a2915017600c526020600c2080548084116103e85783900390555f526020600c2081815401905560205273ffffffffffffffffffffffffffffffffffffffff600c5160601c91167fddf252ad1be2c89b69c2b068fc378daa952ba7f163c4a11628f55a4df523b3ef602080a3602060405160018152f35b82851161082257846387a211a2930390558561078f565b6313be252b5f526004601cfd5b3461011c575f7ffffffffffffffffffffffffffffffffffffffffffffffffffffffffffffffffc36011261011c5760206805345cdf77eb68f44c54604051908152f35b3461011c5760407ffffffffffffffffffffffffffffffffffffffffffffffffffffffffffffffffc36011261011c576108a96109aa565b60243590602052637f5e9f20600c52335f52806034600c20555f52602c5160601c337f8c5be1e5ebec7d5bd14f71427d1e84f3dd0314c0f7b2291e5b200ac8c7c3b92560205fa3602060405160018152f35b3461011c575f7ffffffffffffffffffffffffffffffffffffffffffffffffffffffffffffffffc36011261011c5761047b6109346109f0565b7f57726170706564204265726100000000000000000000000000000000000000006020820152604051918291825b7fffffffffffffffffffffffffffffffffffffffffffffffffffffffffffffffe0601f602060409481855280519182918282880152018686015e5f8582860101520116010190565b6004359073ffffffffffffffffffffffffffffffffffffffff8216820361011c57565b6024359073ffffffffffffffffffffffffffffffffffffffff8216820361011c57565b604051906040820182811067ffffffffffffffff82111761047f57604052600c8252565b6805345cdf77eb68f44c54348101908110610aa5576805345cdf77eb68f44c556387a211a2600c52335f526020600c2034815401905534602052600c5160601c5f7fddf252ad1be2c89b69c2b068fc378daa952ba7f163c4a11628f55a4df523b3ef602080a3345f52337fe1fffcc4923d04b559f4d29a8bfc6cda04eb5b0d3c460751c2402c5c5cc9109c60205fa2565b63e5cfe9575f526004601cfdfea164736f6c634300081a000a",
    "linkReferences": {},
    "deployedLinkReferences": {}
}